{
  "_format": "hh-sol-artifact-1",
  "contractName": "BattleRoyale",
  "sourceName": "src/BattleRoyale.sol",
  "abi": [
    {
      "inputs": [],
      "stateMutability": "nonpayable",
      "type": "constructor"
    },
    {
      "anonymous": false,
      "inputs": [
        {
          "indexed": false,
          "internalType": "uint256",
          "name": "beastId",
          "type": "uint256"
        },
        {
          "indexed": false,
          "internalType": "uint256",
          "name": "armorId",
          "type": "uint256"
        }
      ],
      "name": "ArmorEquipped",
      "type": "event"
    },
    {
      "anonymous": false,
      "inputs": [],
      "name": "BattleClosed",
      "type": "event"
    },
    {
      "anonymous": false,
      "inputs": [
        {
          "indexed": false,
          "internalType": "uint256",
          "name": "battleNumber",
          "type": "uint256"
        }
      ],
      "name": "BattleCompleted",
      "type": "event"
    },
    {
      "anonymous": false,
      "inputs": [
        {
          "indexed": false,
          "internalType": "uint256",
          "name": "beastId",
          "type": "uint256"
        },
        {
          "indexed": false,
          "internalType": "address",
          "name": "player",
          "type": "address"
        }
      ],
      "name": "BeastJoined",
      "type": "event"
    },
    {
      "anonymous": false,
      "inputs": [
        {
          "indexed": false,
          "internalType": "uint256",
          "name": "battleGen",
          "type": "uint256"
        }
      ],
      "name": "EnrollmentClosed",
      "type": "event"
    },
    {
      "anonymous": false,
      "inputs": [
        {
          "indexed": false,
          "internalType": "uint256",
          "name": "battleGen",
          "type": "uint256"
        }
      ],
      "name": "EnrollmentOpened",
      "type": "event"
    },
    {
      "anonymous": false,
      "inputs": [
        {
          "indexed": false,
          "internalType": "uint256",
          "name": "battle",
          "type": "uint256"
        },
        {
          "indexed": false,
          "internalType": "uint256",
          "name": "beastId",
          "type": "uint256"
        },
        {
          "indexed": false,
          "internalType": "address",
          "name": "firstPlace",
          "type": "address"
        }
      ],
      "name": "FirstPlace",
      "type": "event"
    },
    {
      "anonymous": false,
      "inputs": [
        {
          "indexed": false,
          "internalType": "address",
          "name": "account",
          "type": "address"
        }
      ],
      "name": "Paused",
      "type": "event"
    },
    {
      "anonymous": false,
      "inputs": [
        {
          "indexed": true,
          "internalType": "bytes32",
          "name": "role",
          "type": "bytes32"
        },
        {
          "indexed": true,
          "internalType": "bytes32",
          "name": "previousAdminRole",
          "type": "bytes32"
        },
        {
          "indexed": true,
          "internalType": "bytes32",
          "name": "newAdminRole",
          "type": "bytes32"
        }
      ],
      "name": "RoleAdminChanged",
      "type": "event"
    },
    {
      "anonymous": false,
      "inputs": [
        {
          "indexed": true,
          "internalType": "bytes32",
          "name": "role",
          "type": "bytes32"
        },
        {
          "indexed": true,
          "internalType": "address",
          "name": "account",
          "type": "address"
        },
        {
          "indexed": true,
          "internalType": "address",
          "name": "sender",
          "type": "address"
        }
      ],
      "name": "RoleGranted",
      "type": "event"
    },
    {
      "anonymous": false,
      "inputs": [
        {
          "indexed": true,
          "internalType": "bytes32",
          "name": "role",
          "type": "bytes32"
        },
        {
          "indexed": true,
          "internalType": "address",
          "name": "account",
          "type": "address"
        },
        {
          "indexed": true,
          "internalType": "address",
          "name": "sender",
          "type": "address"
        }
      ],
      "name": "RoleRevoked",
      "type": "event"
    },
    {
      "anonymous": false,
      "inputs": [
        {
          "indexed": false,
          "internalType": "uint256",
          "name": "battle",
          "type": "uint256"
        },
        {
          "indexed": false,
          "internalType": "uint256",
          "name": "beastId",
          "type": "uint256"
        },
        {
          "indexed": false,
          "internalType": "address",
          "name": "secondPlace",
          "type": "address"
        }
      ],
      "name": "SecondPlace",
      "type": "event"
    },
    {
      "anonymous": false,
      "inputs": [
        {
          "indexed": false,
          "internalType": "uint256",
          "name": "battleNumber",
          "type": "uint256"
        }
      ],
      "name": "StartBattle",
      "type": "event"
    },
    {
      "anonymous": false,
      "inputs": [
        {
          "indexed": false,
          "internalType": "uint256",
          "name": "battle",
          "type": "uint256"
        },
        {
          "indexed": false,
          "internalType": "uint256",
          "name": "beastId",
          "type": "uint256"
        },
        {
          "indexed": false,
          "internalType": "address",
          "name": "thirdPlace",
          "type": "address"
        }
      ],
      "name": "ThirdPlace",
      "type": "event"
    },
    {
      "anonymous": false,
      "inputs": [
        {
          "indexed": false,
          "internalType": "address",
          "name": "account",
          "type": "address"
        }
      ],
      "name": "Unpaused",
      "type": "event"
    },
    {
      "anonymous": false,
      "inputs": [
        {
          "indexed": false,
          "internalType": "uint256",
          "name": "beastId",
          "type": "uint256"
        },
        {
          "indexed": false,
          "internalType": "uint256",
          "name": "weaponId",
          "type": "uint256"
        }
      ],
      "name": "WeaponEquipped",
      "type": "event"
    },
    {
      "inputs": [],
      "name": "BATTLE_MASTER",
      "outputs": [
        {
          "internalType": "bytes32",
          "name": "",
          "type": "bytes32"
        }
      ],
      "stateMutability": "view",
      "type": "function"
    },
    {
      "inputs": [],
      "name": "COIN_HANDLER",
      "outputs": [
        {
          "internalType": "bytes32",
          "name": "",
          "type": "bytes32"
        }
      ],
      "stateMutability": "view",
      "type": "function"
    },
    {
      "inputs": [],
      "name": "DEFAULT_ADMIN_ROLE",
      "outputs": [
        {
          "internalType": "bytes32",
          "name": "",
          "type": "bytes32"
        }
      ],
      "stateMutability": "view",
      "type": "function"
    },
    {
      "inputs": [],
      "name": "ENROLLMENT_FEE",
      "outputs": [
        {
          "internalType": "uint256",
          "name": "",
          "type": "uint256"
        }
      ],
      "stateMutability": "view",
      "type": "function"
    },
    {
      "inputs": [],
      "name": "MAX_BEASTS",
      "outputs": [
        {
          "internalType": "uint256",
          "name": "",
          "type": "uint256"
        }
      ],
      "stateMutability": "view",
      "type": "function"
    },
    {
      "inputs": [],
      "name": "closeBattle",
      "outputs": [],
      "stateMutability": "nonpayable",
      "type": "function"
    },
    {
      "inputs": [],
      "name": "closeEnrollment",
      "outputs": [],
      "stateMutability": "nonpayable",
      "type": "function"
    },
    {
      "inputs": [
        {
          "internalType": "uint256",
          "name": "firstPlaceBeast",
          "type": "uint256"
        },
        {
          "internalType": "uint256",
          "name": "secondPlaceBeast",
          "type": "uint256"
        },
        {
          "internalType": "uint256",
          "name": "thirdPlaceBeast",
          "type": "uint256"
        }
      ],
      "name": "completeBattle",
      "outputs": [
        {
          "internalType": "uint256",
          "name": "battleNumber",
          "type": "uint256"
        }
      ],
      "stateMutability": "nonpayable",
      "type": "function"
    },
    {
      "inputs": [],
      "name": "currentBattle",
      "outputs": [
        {
          "internalType": "uint256",
          "name": "battle",
          "type": "uint256"
        }
      ],
      "stateMutability": "view",
      "type": "function"
    },
    {
      "inputs": [
        {
          "internalType": "uint256",
          "name": "beastId",
          "type": "uint256"
        },
        {
          "internalType": "uint256",
          "name": "armorId",
          "type": "uint256"
        }
      ],
      "name": "equipArmor",
      "outputs": [],
      "stateMutability": "nonpayable",
      "type": "function"
    },
    {
      "inputs": [
        {
          "internalType": "uint256",
          "name": "beastId",
          "type": "uint256"
        },
        {
          "internalType": "uint256",
          "name": "weaponId",
          "type": "uint256"
        }
      ],
      "name": "equipWeapon",
      "outputs": [],
      "stateMutability": "nonpayable",
      "type": "function"
    },
    {
      "inputs": [],
      "name": "getBeastIds",
      "outputs": [
        {
          "internalType": "uint256[]",
          "name": "beasts",
          "type": "uint256[]"
        }
      ],
      "stateMutability": "view",
      "type": "function"
    },
    {
      "inputs": [
        {
          "internalType": "uint256",
          "name": "beastId",
          "type": "uint256"
        }
      ],
      "name": "getEquippedArmor",
      "outputs": [
        {
          "internalType": "uint256",
          "name": "armorId",
          "type": "uint256"
        }
      ],
      "stateMutability": "view",
      "type": "function"
    },
    {
      "inputs": [
        {
          "internalType": "uint256",
          "name": "beastId",
          "type": "uint256"
        }
      ],
      "name": "getEquippedWeapon",
      "outputs": [
        {
          "internalType": "uint256",
          "name": "weaponId",
          "type": "uint256"
        }
      ],
      "stateMutability": "view",
      "type": "function"
    },
    {
      "inputs": [
        {
          "internalType": "uint256",
          "name": "beastId",
          "type": "uint256"
        }
      ],
      "name": "getPlayer",
      "outputs": [
        {
          "internalType": "address",
          "name": "player",
          "type": "address"
        }
      ],
      "stateMutability": "view",
      "type": "function"
    },
    {
      "inputs": [
        {
          "internalType": "bytes32",
          "name": "role",
          "type": "bytes32"
        }
      ],
      "name": "getRoleAdmin",
      "outputs": [
        {
          "internalType": "bytes32",
          "name": "",
          "type": "bytes32"
        }
      ],
      "stateMutability": "view",
      "type": "function"
    },
    {
      "inputs": [
        {
          "internalType": "bytes32",
          "name": "role",
          "type": "bytes32"
        },
        {
          "internalType": "address",
          "name": "account",
          "type": "address"
        }
      ],
      "name": "grantRole",
      "outputs": [],
      "stateMutability": "nonpayable",
      "type": "function"
    },
    {
      "inputs": [
        {
          "internalType": "uint256",
          "name": "beastId",
          "type": "uint256"
        },
        {
          "internalType": "uint256",
          "name": "battleId",
          "type": "uint256"
        }
      ],
      "name": "hasJoined",
      "outputs": [
        {
          "internalType": "bool",
          "name": "hasJoinedBattle",
          "type": "bool"
        }
      ],
      "stateMutability": "view",
      "type": "function"
    },
    {
      "inputs": [
        {
          "internalType": "bytes32",
          "name": "role",
          "type": "bytes32"
        },
        {
          "internalType": "address",
          "name": "account",
          "type": "address"
        }
      ],
      "name": "hasRole",
      "outputs": [
        {
          "internalType": "bool",
          "name": "",
          "type": "bool"
        }
      ],
      "stateMutability": "view",
      "type": "function"
    },
    {
      "inputs": [
        {
          "internalType": "uint256",
          "name": "beastId",
          "type": "uint256"
        }
      ],
      "name": "joinBattle",
      "outputs": [],
      "stateMutability": "payable",
      "type": "function"
    },
    {
      "inputs": [],
      "name": "openEnrollment",
      "outputs": [],
      "stateMutability": "nonpayable",
      "type": "function"
    },
    {
      "inputs": [],
      "name": "owner",
      "outputs": [
        {
          "internalType": "address payable",
          "name": "",
          "type": "address"
        }
      ],
      "stateMutability": "view",
      "type": "function"
    },
    {
      "inputs": [],
      "name": "paused",
      "outputs": [
        {
          "internalType": "bool",
          "name": "",
          "type": "bool"
        }
      ],
      "stateMutability": "view",
      "type": "function"
    },
    {
      "inputs": [
        {
          "internalType": "bytes32",
          "name": "role",
          "type": "bytes32"
        },
        {
          "internalType": "address",
          "name": "account",
          "type": "address"
        }
      ],
      "name": "renounceRole",
      "outputs": [],
      "stateMutability": "nonpayable",
      "type": "function"
    },
    {
      "inputs": [
        {
          "internalType": "bytes32",
          "name": "role",
          "type": "bytes32"
        },
        {
          "internalType": "address",
          "name": "account",
          "type": "address"
        }
      ],
      "name": "revokeRole",
      "outputs": [],
      "stateMutability": "nonpayable",
      "type": "function"
    },
    {
      "inputs": [
        {
          "internalType": "uint256",
          "name": "enrollmentFee",
          "type": "uint256"
        }
      ],
      "name": "setEnrollmentFee",
      "outputs": [],
      "stateMutability": "nonpayable",
      "type": "function"
    },
    {
      "inputs": [
        {
          "internalType": "uint256",
          "name": "maxBeasts",
          "type": "uint256"
        }
      ],
      "name": "setMaxBeasts",
      "outputs": [],
      "stateMutability": "nonpayable",
      "type": "function"
    },
    {
      "inputs": [],
      "name": "startBattle",
      "outputs": [
        {
          "internalType": "uint256",
          "name": "battleNumber",
          "type": "uint256"
        }
      ],
      "stateMutability": "nonpayable",
      "type": "function"
    },
    {
      "inputs": [
        {
          "internalType": "bytes4",
          "name": "interfaceId",
          "type": "bytes4"
        }
      ],
      "name": "supportsInterface",
      "outputs": [
        {
          "internalType": "bool",
          "name": "",
          "type": "bool"
        }
      ],
      "stateMutability": "view",
      "type": "function"
    },
    {
      "inputs": [],
      "name": "withdraw",
      "outputs": [],
      "stateMutability": "nonpayable",
      "type": "function"
    }
  ],
  "bytecode": "0x60806040526101c86008556305f5e1006009553480156200001f57600080fd5b506000600160006101000a81548160ff02191690831515021790555033600760006101000a81548173ffffffffffffffffffffffffffffffffffffffff021916908373ffffffffffffffffffffffffffffffffffffffff160217905550620000916000801b336200011260201b60201c565b620000c37f584f28a5cb44dd4020bde3b9a33cad3eff2c2c49209e7e001559d6f6e858e915336200011260201b60201c565b620000f57f5b74023b9324d20a0d07570923fad6318b595bac930c979aa1b9198433be8f67336200011260201b60201c565b6200010c60066200020360201b620017691760201c565b6200028b565b6200012482826200021960201b60201c565b620001ff57600160008084815260200190815260200160002060000160008373ffffffffffffffffffffffffffffffffffffffff1673ffffffffffffffffffffffffffffffffffffffff16815260200190815260200160002060006101000a81548160ff021916908315150217905550620001a46200028360201b60201c565b73ffffffffffffffffffffffffffffffffffffffff168173ffffffffffffffffffffffffffffffffffffffff16837f2f8788117e7eff1d82e926ec794901d17c78024a50270940304540a733656f0d60405160405180910390a45b5050565b6001816000016000828254019250508190555050565b600080600084815260200190815260200160002060000160008373ffffffffffffffffffffffffffffffffffffffff1673ffffffffffffffffffffffffffffffffffffffff16815260200190815260200160002060009054906101000a900460ff16905092915050565b600033905090565b612b70806200029b6000396000f3fe6080604052600436106101cc5760003560e01c80635c975abb116100f7578063a46e5f8211610095578063d816f01a11610064578063d816f01a14610656578063dbf9a8a41461067f578063e55ae4e814610696578063e88a6ac1146106d3576101cc565b8063a46e5f8214610576578063b7efd5b4146105b3578063beffd8c1146105f0578063d547741f1461062d576101cc565b8063835c2ae1116100d1578063835c2ae1146104cc5780638da5cb5b146104e357806391d148541461050e578063a217fddf1461054b576101cc565b80635c975abb1461044d5780635e8aadbb14610478578063785e8671146104a3576101cc565b80632f2ff15d1161016f5780633eacc12b1161013e5780633eacc12b1461039e578063490d4fc0146103db5780634a042f0d146104065780635a26d51814610422576101cc565b80632f2ff15d1461030c57806336568abe1461033557806336f043021461035e5780633ccfd60b14610387576101cc565b806310483a7a116101ab57806310483a7a14610262578063240a2c971461028d578063248a9ca3146102b85780632adf4c97146102f5576101cc565b80622c820a146101d157806301ffc9a7146101fa578063079a529a14610237575b600080fd5b3480156101dd57600080fd5b506101f860048036038101906101f39190611f7d565b6106fe565b005b34801561020657600080fd5b50610221600480360381019061021c9190611f54565b61073b565b60405161022e91906123fc565b60405180910390f35b34801561024357600080fd5b5061024c6107b5565b6040516102599190612417565b60405180910390f35b34801561026e57600080fd5b506102776107d9565b6040516102849190612417565b60405180910390f35b34801561029957600080fd5b506102a26107fd565b6040516102af91906125b4565b60405180910390f35b3480156102c457600080fd5b506102df60048036038101906102da9190611eef565b610896565b6040516102ec9190612417565b60405180910390f35b34801561030157600080fd5b5061030a6108b5565b005b34801561031857600080fd5b50610333600480360381019061032e9190611f18565b610932565b005b34801561034157600080fd5b5061035c60048036038101906103579190611f18565b61095b565b005b34801561036a57600080fd5b5061038560048036038101906103809190611fa6565b6109de565b005b34801561039357600080fd5b5061039c610aa1565b005b3480156103aa57600080fd5b506103c560048036038101906103c09190611f7d565b610bab565b6040516103d291906125b4565b60405180910390f35b3480156103e757600080fd5b506103f0610ca6565b6040516103fd91906125b4565b60405180910390f35b610420600480360381019061041b9190611f7d565b610cac565b005b34801561042e57600080fd5b50610437610f27565b60405161044491906123da565b60405180910390f35b34801561045957600080fd5b50610462610f99565b60405161046f91906123fc565b60405180910390f35b34801561048457600080fd5b5061048d610fb0565b60405161049a91906125b4565b60405180910390f35b3480156104af57600080fd5b506104ca60048036038101906104c59190611fa6565b610fb6565b005b3480156104d857600080fd5b506104e1611079565b005b3480156104ef57600080fd5b506104f86110f6565b60405161050591906123bf565b60405180910390f35b34801561051a57600080fd5b5061053560048036038101906105309190611f18565b61111c565b60405161054291906123fc565b60405180910390f35b34801561055757600080fd5b50610560611186565b60405161056d9190612417565b60405180910390f35b34801561058257600080fd5b5061059d60048036038101906105989190611f7d565b61118d565b6040516105aa91906125b4565b60405180910390f35b3480156105bf57600080fd5b506105da60048036038101906105d59190611fe2565b611288565b6040516105e791906125b4565b60405180910390f35b3480156105fc57600080fd5b5061061760048036038101906106129190611fa6565b611592565b60405161062491906123fc565b60405180910390f35b34801561063957600080fd5b50610654600480360381019061064f9190611f18565b6115d1565b005b34801561066257600080fd5b5061067d60048036038101906106789190611f7d565b6115fa565b005b34801561068b57600080fd5b50610694611637565b005b3480156106a257600080fd5b506106bd60048036038101906106b89190611f7d565b6116aa565b6040516106ca91906123a4565b60405180910390f35b3480156106df57600080fd5b506106e8611758565b6040516106f591906125b4565b60405180910390f35b7f584f28a5cb44dd4020bde3b9a33cad3eff2c2c49209e7e001559d6f6e858e9156107308161072b61177f565b611787565b816008819055505050565b60007f7965db0b000000000000000000000000000000000000000000000000000000007bffffffffffffffffffffffffffffffffffffffffffffffffffffffff1916827bffffffffffffffffffffffffffffffffffffffffffffffffffffffff191614806107ae57506107ad82611824565b5b9050919050565b7f5b74023b9324d20a0d07570923fad6318b595bac930c979aa1b9198433be8f6781565b7f584f28a5cb44dd4020bde3b9a33cad3eff2c2c49209e7e001559d6f6e858e91581565b60007f584f28a5cb44dd4020bde3b9a33cad3eff2c2c49209e7e001559d6f6e858e9156108318161082c61177f565b611787565b7fddad7ef5c37a6f922f2396626295ac33a76b3068e7027caac28770e98e7cd62761085c600661188e565b60405161086991906125b4565b60405180910390a1610879610f99565b610886576108856108b5565b5b610890600661188e565b91505090565b6000806000838152602001908152602001600020600101549050919050565b7f584f28a5cb44dd4020bde3b9a33cad3eff2c2c49209e7e001559d6f6e858e9156108e7816108e261177f565b611787565b6108ef61189c565b7ff397b67e17d0a6606edc8f3f1ab65f0f152353c8ee4f7389cb0e84044e2e971461091a600661188e565b60405161092791906125b4565b60405180910390a150565b61093b82610896565b61094c8161094761177f565b611787565b610956838361193e565b505050565b61096361177f565b73ffffffffffffffffffffffffffffffffffffffff168173ffffffffffffffffffffffffffffffffffffffff16146109d0576040517f08c379a00000000000000000000000000000000000000000000000000000000081526004016109c790612594565b60405180910390fd5b6109da8282611a1e565b5050565b816109f2816109ed600661188e565b611592565b610a31576040517f08c379a0000000000000000000000000000000000000000000000000000000008152600401610a2890612574565b60405180910390fd5b8160046000610a40600661188e565b81526020019081526020016000206000858152602001908152602001600020819055507feb93cf0e253bfd09cc1b8dbf946527dba01adecb12dec48867dd9f522d67f5568383604051610a949291906125f8565b60405180910390a1505050565b7f5b74023b9324d20a0d07570923fad6318b595bac930c979aa1b9198433be8f67610ad381610ace61177f565b611787565b60004790506000600760009054906101000a900473ffffffffffffffffffffffffffffffffffffffff1673ffffffffffffffffffffffffffffffffffffffff1682604051610b2090612355565b60006040518083038185875af1925050503d8060008114610b5d576040519150601f19603f3d011682016040523d82523d6000602084013e610b62565b606091505b5050905080610ba6576040517f08c379a0000000000000000000000000000000000000000000000000000000008152600401610b9d906124d4565b60405180910390fd5b505050565b600081610bc181610bbc600661188e565b611592565b610c00576040517f08c379a0000000000000000000000000000000000000000000000000000000008152600401610bf790612574565b60405180910390fd5b600060036000610c10600661188e565b815260200190815260200160002060008581526020019081526020016000205411610c70576040517f08c379a0000000000000000000000000000000000000000000000000000000008152600401610c67906124b4565b60405180910390fd5b60036000610c7e600661188e565b8152602001908152602001600020600084815260200190815260200160002054915050919050565b60085481565b610cb4610f99565b15610cf4576040517f08c379a0000000000000000000000000000000000000000000000000000000008152600401610ceb90612514565b60405180910390fd5b80610d0881610d03600661188e565b611592565b15610d48576040517f08c379a0000000000000000000000000000000000000000000000000000000008152600401610d3f906124f4565b60405180910390fd5b60085460056000610d59600661188e565b81526020019081526020016000208054905010610dab576040517f08c379a0000000000000000000000000000000000000000000000000000000008152600401610da290612534565b60405180910390fd5b6009543411610def576040517f08c379a0000000000000000000000000000000000000000000000000000000008152600401610de690612494565b60405180910390fd5b60056000610dfd600661188e565b81526020019081526020016000208290806001815401808255809150506001900390600052602060002001600090919091909150553360026000610e41600661188e565b8152602001908152602001600020600084815260200190815260200160002060000160006101000a81548173ffffffffffffffffffffffffffffffffffffffff021916908373ffffffffffffffffffffffffffffffffffffffff160217905550600160026000610eb1600661188e565b8152602001908152602001600020600084815260200190815260200160002060000160146101000a81548160ff0219169083151502179055507fcc76d994ba29b6355c72759f9186f2c95c06bc86882e4e718fc94216f9af9ace8233604051610f1b9291906125cf565b60405180910390a15050565b606060056000610f37600661188e565b8152602001908152602001600020805480602002602001604051908101604052809291908181526020018280548015610f8f57602002820191906000526020600020905b815481526020019060010190808311610f7b575b5050505050905090565b6000600160009054906101000a900460ff16905090565b60095481565b81610fca81610fc5600661188e565b611592565b611009576040517f08c379a000000000000000000000000000000000000000000000000000000000815260040161100090612574565b60405180910390fd5b8160036000611018600661188e565b81526020019081526020016000206000858152602001908152602001600020819055507f73fc4a89502514f0ff36090bf8b75b8dd4ec0d71e695f484bebfb4ffe5a638e2838360405161106c9291906125f8565b60405180910390a1505050565b7f584f28a5cb44dd4020bde3b9a33cad3eff2c2c49209e7e001559d6f6e858e9156110ab816110a661177f565b611787565b6110b3611aff565b7fbfb61e7065507dead408fa888199eb87a3baee83baabcc1fac4e5cd9fde145ef6110de600661188e565b6040516110eb91906125b4565b60405180910390a150565b600760009054906101000a900473ffffffffffffffffffffffffffffffffffffffff1681565b600080600084815260200190815260200160002060000160008373ffffffffffffffffffffffffffffffffffffffff1673ffffffffffffffffffffffffffffffffffffffff16815260200190815260200160002060009054906101000a900460ff16905092915050565b6000801b81565b6000816111a38161119e600661188e565b611592565b6111e2576040517f08c379a00000000000000000000000000000000000000000000000000000000081526004016111d990612574565b60405180910390fd5b6000600460006111f2600661188e565b815260200190815260200160002060008581526020019081526020016000205411611252576040517f08c379a000000000000000000000000000000000000000000000000000000000815260040161124990612554565b60405180910390fd5b60046000611260600661188e565b8152602001908152602001600020600084815260200190815260200160002054915050919050565b60007f584f28a5cb44dd4020bde3b9a33cad3eff2c2c49209e7e001559d6f6e858e9156112bc816112b761177f565b611787565b846112d0816112cb600661188e565b611592565b61130f576040517f08c379a000000000000000000000000000000000000000000000000000000000815260040161130690612574565b60405180910390fd5b846113238161131e600661188e565b611592565b611362576040517f08c379a000000000000000000000000000000000000000000000000000000000815260040161135990612574565b60405180910390fd5b8461137681611371600661188e565b611592565b6113b5576040517f08c379a00000000000000000000000000000000000000000000000000000000081526004016113ac90612574565b60405180910390fd5b7f2698d75f814df009b510df39d03c901a6e830c6dfd50922c8fe6bbb7949678436113e0600661188e565b6040516113ed91906125b4565b60405180910390a16113ff600661188e565b94507fc1f7cfaea29a0095b6768883c8d337d500a76c5cce76abd9119639f07f0d20a585896002600089815260200190815260200160002060008c815260200190815260200160002060000160009054906101000a900473ffffffffffffffffffffffffffffffffffffffff1660405161147b93929190612621565b60405180910390a17fc37946c5f2d473aa485b9cee8770719f12704acfbaf475c6471060e873f4092b85886002600089815260200190815260200160002060008b815260200190815260200160002060000160009054906101000a900473ffffffffffffffffffffffffffffffffffffffff166040516114fd93929190612621565b60405180910390a17fb0f045e2a833717a0231f0274a6f21049e49bc2f278500acd66878e7cfcfd4e885876002600089815260200190815260200160002060008a815260200190815260200160002060000160009054906101000a900473ffffffffffffffffffffffffffffffffffffffff1660405161157f93929190612621565b60405180910390a1505050509392505050565b600060026000838152602001908152602001600020600084815260200190815260200160002060000160149054906101000a900460ff16905092915050565b6115da82610896565b6115eb816115e661177f565b611787565b6115f58383611a1e565b505050565b7f584f28a5cb44dd4020bde3b9a33cad3eff2c2c49209e7e001559d6f6e858e91561162c8161162761177f565b611787565b816009819055505050565b7f584f28a5cb44dd4020bde3b9a33cad3eff2c2c49209e7e001559d6f6e858e9156116698161166461177f565b611787565b6116716108b5565b61167b6006611769565b7f67c602f8f1e41a8e2fbee5c5a8501161611b3da7f0a5224c452c350014b6e07360405160405180910390a150565b6000816116c0816116bb600661188e565b611592565b6116ff576040517f08c379a00000000000000000000000000000000000000000000000000000000081526004016116f690612574565b60405180910390fd5b6002600061170d600661188e565b8152602001908152602001600020600084815260200190815260200160002060000160009054906101000a900473ffffffffffffffffffffffffffffffffffffffff16915050919050565b6000611764600661188e565b905090565b6001816000016000828254019250508190555050565b600033905090565b611791828261111c565b611820576117b68173ffffffffffffffffffffffffffffffffffffffff166014611ba1565b6117c48360001c6020611ba1565b6040516020016117d592919061236a565b6040516020818303038152906040526040517f08c379a00000000000000000000000000000000000000000000000000000000081526004016118179190612432565b60405180910390fd5b5050565b60007f01ffc9a7000000000000000000000000000000000000000000000000000000007bffffffffffffffffffffffffffffffffffffffffffffffffffffffff1916827bffffffffffffffffffffffffffffffffffffffffffffffffffffffff1916149050919050565b600081600001549050919050565b6118a4610f99565b156118e4576040517f08c379a00000000000000000000000000000000000000000000000000000000081526004016118db90612514565b60405180910390fd5b60018060006101000a81548160ff0219169083151502179055507f62e78cea01bee320cd4e420270b5ea74000d11b0c9f74754ebdbfc544b05a25861192761177f565b60405161193491906123a4565b60405180910390a1565b611948828261111c565b611a1a57600160008084815260200190815260200160002060000160008373ffffffffffffffffffffffffffffffffffffffff1673ffffffffffffffffffffffffffffffffffffffff16815260200190815260200160002060006101000a81548160ff0219169083151502179055506119bf61177f565b73ffffffffffffffffffffffffffffffffffffffff168173ffffffffffffffffffffffffffffffffffffffff16837f2f8788117e7eff1d82e926ec794901d17c78024a50270940304540a733656f0d60405160405180910390a45b5050565b611a28828261111c565b15611afb57600080600084815260200190815260200160002060000160008373ffffffffffffffffffffffffffffffffffffffff1673ffffffffffffffffffffffffffffffffffffffff16815260200190815260200160002060006101000a81548160ff021916908315150217905550611aa061177f565b73ffffffffffffffffffffffffffffffffffffffff168173ffffffffffffffffffffffffffffffffffffffff16837ff6391f5c32d9c69d2a47ea670b442974b53935d1edc7fd64eb21e047a839171b60405160405180910390a45b5050565b611b07610f99565b611b46576040517f08c379a0000000000000000000000000000000000000000000000000000000008152600401611b3d90612474565b60405180910390fd5b6000600160006101000a81548160ff0219169083151502179055507f5db9ee0a495bf2e6ff9c91a7834c1ba4fdd244a5e8aa4e537bd38aeae4b073aa611b8a61177f565b604051611b9791906123a4565b60405180910390a1565b606060006002836002611bb49190612719565b611bbe91906126c3565b67ffffffffffffffff811115611bfd577f4e487b7100000000000000000000000000000000000000000000000000000000600052604160045260246000fd5b6040519080825280601f01601f191660200182016040528015611c2f5781602001600182028036833780820191505090505b5090507f300000000000000000000000000000000000000000000000000000000000000081600081518110611c8d577f4e487b7100000000000000000000000000000000000000000000000000000000600052603260045260246000fd5b60200101907effffffffffffffffffffffffffffffffffffffffffffffffffffffffffffff1916908160001a9053507f780000000000000000000000000000000000000000000000000000000000000081600181518110611d17577f4e487b7100000000000000000000000000000000000000000000000000000000600052603260045260246000fd5b60200101907effffffffffffffffffffffffffffffffffffffffffffffffffffffffffffff1916908160001a90535060006001846002611d579190612719565b611d6191906126c3565b90505b6001811115611e4d577f3031323334353637383961626364656600000000000000000000000000000000600f861660108110611dc9577f4e487b7100000000000000000000000000000000000000000000000000000000600052603260045260246000fd5b1a60f81b828281518110611e06577f4e487b7100000000000000000000000000000000000000000000000000000000600052603260045260246000fd5b60200101907effffffffffffffffffffffffffffffffffffffffffffffffffffffffffffff1916908160001a905350600485901c945080611e4690612836565b9050611d64565b5060008414611e91576040517f08c379a0000000000000000000000000000000000000000000000000000000008152600401611e8890612454565b60405180910390fd5b8091505092915050565b600081359050611eaa81612ade565b92915050565b600081359050611ebf81612af5565b92915050565b600081359050611ed481612b0c565b92915050565b600081359050611ee981612b23565b92915050565b600060208284031215611f0157600080fd5b6000611f0f84828501611eb0565b91505092915050565b60008060408385031215611f2b57600080fd5b6000611f3985828601611eb0565b9250506020611f4a85828601611e9b565b9150509250929050565b600060208284031215611f6657600080fd5b6000611f7484828501611ec5565b91505092915050565b600060208284031215611f8f57600080fd5b6000611f9d84828501611eda565b91505092915050565b60008060408385031215611fb957600080fd5b6000611fc785828601611eda565b9250506020611fd885828601611eda565b9150509250929050565b600080600060608486031215611ff757600080fd5b600061200586828701611eda565b935050602061201686828701611eda565b925050604061202786828701611eda565b9150509250925092565b600061203d8383612337565b60208301905092915050565b61205281612785565b82525050565b61206181612773565b82525050565b600061207282612668565b61207c818561268b565b935061208783612658565b8060005b838110156120b857815161209f8882612031565b97506120aa8361267e565b92505060018101905061208b565b5085935050505092915050565b6120ce81612797565b82525050565b6120dd816127a3565b82525050565b60006120ee82612673565b6120f881856126a7565b9350612108818560208601612803565b6121118161288f565b840191505092915050565b600061212782612673565b61213181856126b8565b9350612141818560208601612803565b80840191505092915050565b600061215a6020836126a7565b9150612165826128a0565b602082019050919050565b600061217d6014836126a7565b9150612188826128c9565b602082019050919050565b60006121a06018836126a7565b91506121ab826128f2565b602082019050919050565b60006121c36012836126a7565b91506121ce8261291b565b602082019050919050565b60006121e66014836126a7565b91506121f182612944565b602082019050919050565b6000612209601a836126a7565b91506122148261296d565b602082019050919050565b600061222c6010836126a7565b915061223782612996565b602082019050919050565b600061224f601e836126a7565b915061225a826129bf565b602082019050919050565b600061227260008361269c565b915061227d826129e8565b600082019050919050565b60006122956017836126b8565b91506122a0826129eb565b601782019050919050565b60006122b86011836126a7565b91506122c382612a14565b602082019050919050565b60006122db6016836126a7565b91506122e682612a3d565b602082019050919050565b60006122fe6011836126b8565b915061230982612a66565b601182019050919050565b6000612321602f836126a7565b915061232c82612a8f565b604082019050919050565b612340816127f9565b82525050565b61234f816127f9565b82525050565b600061236082612265565b9150819050919050565b600061237582612288565b9150612381828561211c565b915061238c826122f1565b9150612398828461211c565b91508190509392505050565b60006020820190506123b96000830184612058565b92915050565b60006020820190506123d46000830184612049565b92915050565b600060208201905081810360008301526123f48184612067565b905092915050565b600060208201905061241160008301846120c5565b92915050565b600060208201905061242c60008301846120d4565b92915050565b6000602082019050818103600083015261244c81846120e3565b905092915050565b6000602082019050818103600083015261246d8161214d565b9050919050565b6000602082019050818103600083015261248d81612170565b9050919050565b600060208201905081810360008301526124ad81612193565b9050919050565b600060208201905081810360008301526124cd816121b6565b9050919050565b600060208201905081810360008301526124ed816121d9565b9050919050565b6000602082019050818103600083015261250d816121fc565b9050919050565b6000602082019050818103600083015261252d8161221f565b9050919050565b6000602082019050818103600083015261254d81612242565b9050919050565b6000602082019050818103600083015261256d816122ab565b9050919050565b6000602082019050818103600083015261258d816122ce565b9050919050565b600060208201905081810360008301526125ad81612314565b9050919050565b60006020820190506125c96000830184612346565b92915050565b60006040820190506125e46000830185612346565b6125f16020830184612058565b9392505050565b600060408201905061260d6000830185612346565b61261a6020830184612346565b9392505050565b60006060820190506126366000830186612346565b6126436020830185612346565b6126506040830184612058565b949350505050565b6000819050602082019050919050565b600081519050919050565b600081519050919050565b6000602082019050919050565b600082825260208201905092915050565b600081905092915050565b600082825260208201905092915050565b600081905092915050565b60006126ce826127f9565b91506126d9836127f9565b9250827fffffffffffffffffffffffffffffffffffffffffffffffffffffffffffffffff0382111561270e5761270d612860565b5b828201905092915050565b6000612724826127f9565b915061272f836127f9565b9250817fffffffffffffffffffffffffffffffffffffffffffffffffffffffffffffffff048311821515161561276857612767612860565b5b828202905092915050565b600061277e826127d9565b9050919050565b6000612790826127d9565b9050919050565b60008115159050919050565b6000819050919050565b60007fffffffff0000000000000000000000000000000000000000000000000000000082169050919050565b600073ffffffffffffffffffffffffffffffffffffffff82169050919050565b6000819050919050565b60005b83811015612821578082015181840152602081019050612806565b83811115612830576000848401525b50505050565b6000612841826127f9565b9150600082141561285557612854612860565b5b600182039050919050565b7f4e487b7100000000000000000000000000000000000000000000000000000000600052601160045260246000fd5b6000601f19601f8301169050919050565b7f537472696e67733a20686578206c656e67746820696e73756666696369656e74600082015250565b7f5061757361626c653a206e6f7420706175736564000000000000000000000000600082015250565b7f4d75737420636f76657220636f7374206f6620656e7472790000000000000000600082015250565b7f4e6f20657175697070656420776561706f6e0000000000000000000000000000600082015250565b7f4661696c656420746f2073656e64204574686572000000000000000000000000600082015250565b7f426561737420697320616c7265616479207369676e6564207570000000000000600082015250565b7f5061757361626c653a2070617573656400000000000000000000000000000000600082015250565b7f5369676e207570207468726573686f6c6420686173206265656e206d65740000600082015250565b50565b7f416363657373436f6e74726f6c3a206163636f756e7420000000000000000000600082015250565b7f4e6f2065717569707065642061726d6f72000000000000000000000000000000600082015250565b7f4265617374206973206e6f74207369676e656420757000000000000000000000600082015250565b7f206973206d697373696e6720726f6c6520000000000000000000000000000000600082015250565b7f416363657373436f6e74726f6c3a2063616e206f6e6c792072656e6f756e636560008201527f20726f6c657320666f722073656c660000000000000000000000000000000000602082015250565b612ae781612773565b8114612af257600080fd5b50565b612afe816127a3565b8114612b0957600080fd5b50565b612b15816127ad565b8114612b2057600080fd5b50565b612b2c816127f9565b8114612b3757600080fd5b5056fea264697066735822122078130fbeff9ee5194dbec6c19cc2c5af278641668f83cfc10f6f00eac19c169464736f6c63430008040033",
  "linkReferences": {},
  "deployedLinkReferences": {}
}