{
  "_format": "hh-sol-artifact-1",
  "contractName": "Beasts",
  "sourceName": "src/Beasts.sol",
  "abi": [
    {
      "inputs": [],
      "stateMutability": "nonpayable",
      "type": "constructor"
    },
    {
      "anonymous": false,
      "inputs": [
        {
          "indexed": true,
          "internalType": "address",
          "name": "owner",
          "type": "address"
        },
        {
          "indexed": true,
          "internalType": "address",
          "name": "approved",
          "type": "address"
        },
        {
          "indexed": true,
          "internalType": "uint256",
          "name": "tokenId",
          "type": "uint256"
        }
      ],
      "name": "Approval",
      "type": "event"
    },
    {
      "anonymous": false,
      "inputs": [
        {
          "indexed": true,
          "internalType": "address",
          "name": "owner",
          "type": "address"
        },
        {
          "indexed": true,
          "internalType": "address",
          "name": "operator",
          "type": "address"
        },
        {
          "indexed": false,
          "internalType": "bool",
          "name": "approved",
          "type": "bool"
        }
      ],
      "name": "ApprovalForAll",
      "type": "event"
    },
    {
      "anonymous": false,
      "inputs": [
        {
          "indexed": false,
          "internalType": "uint256",
          "name": "_tokenId",
          "type": "uint256"
        },
        {
          "indexed": false,
          "internalType": "uint256",
          "name": "_trophyId",
          "type": "uint256"
        },
        {
          "indexed": false,
          "internalType": "address",
          "name": "_owner",
          "type": "address"
        }
      ],
      "name": "AttributeMod",
      "type": "event"
    },
    {
      "anonymous": false,
      "inputs": [
        {
          "indexed": false,
          "internalType": "uint256",
          "name": "tokenId",
          "type": "uint256"
        },
        {
          "indexed": false,
          "internalType": "address",
          "name": "_owner",
          "type": "address"
        }
      ],
      "name": "BeastRecruited",
      "type": "event"
    },
    {
      "anonymous": false,
      "inputs": [
        {
          "indexed": false,
          "internalType": "uint256",
          "name": "_tokenId",
          "type": "uint256"
        },
        {
          "indexed": false,
          "internalType": "uint256",
          "name": "_trophyId",
          "type": "uint256"
        },
        {
          "indexed": false,
          "internalType": "address",
          "name": "_owner",
          "type": "address"
        }
      ],
      "name": "CampaignStripes",
      "type": "event"
    },
    {
      "anonymous": false,
      "inputs": [
        {
          "indexed": false,
          "internalType": "uint256",
          "name": "_tokenId",
          "type": "uint256"
        },
        {
          "indexed": false,
          "internalType": "uint256",
          "name": "_trophyId",
          "type": "uint256"
        },
        {
          "indexed": false,
          "internalType": "address",
          "name": "_owner",
          "type": "address"
        }
      ],
      "name": "EarnAchievement",
      "type": "event"
    },
    {
      "anonymous": false,
      "inputs": [
        {
          "indexed": false,
          "internalType": "uint256",
          "name": "_tokenId",
          "type": "uint256"
        },
        {
          "indexed": false,
          "internalType": "uint256",
          "name": "_trophyId",
          "type": "uint256"
        },
        {
          "indexed": false,
          "internalType": "address",
          "name": "_owner",
          "type": "address"
        }
      ],
      "name": "EarnTrophy",
      "type": "event"
    },
    {
      "anonymous": false,
      "inputs": [
        {
          "indexed": false,
          "internalType": "address",
          "name": "account",
          "type": "address"
        }
      ],
      "name": "Paused",
      "type": "event"
    },
    {
      "anonymous": false,
      "inputs": [
        {
          "indexed": true,
          "internalType": "bytes32",
          "name": "role",
          "type": "bytes32"
        },
        {
          "indexed": true,
          "internalType": "bytes32",
          "name": "previousAdminRole",
          "type": "bytes32"
        },
        {
          "indexed": true,
          "internalType": "bytes32",
          "name": "newAdminRole",
          "type": "bytes32"
        }
      ],
      "name": "RoleAdminChanged",
      "type": "event"
    },
    {
      "anonymous": false,
      "inputs": [
        {
          "indexed": true,
          "internalType": "bytes32",
          "name": "role",
          "type": "bytes32"
        },
        {
          "indexed": true,
          "internalType": "address",
          "name": "account",
          "type": "address"
        },
        {
          "indexed": true,
          "internalType": "address",
          "name": "sender",
          "type": "address"
        }
      ],
      "name": "RoleGranted",
      "type": "event"
    },
    {
      "anonymous": false,
      "inputs": [
        {
          "indexed": true,
          "internalType": "bytes32",
          "name": "role",
          "type": "bytes32"
        },
        {
          "indexed": true,
          "internalType": "address",
          "name": "account",
          "type": "address"
        },
        {
          "indexed": true,
          "internalType": "address",
          "name": "sender",
          "type": "address"
        }
      ],
      "name": "RoleRevoked",
      "type": "event"
    },
    {
      "anonymous": false,
      "inputs": [
        {
          "indexed": true,
          "internalType": "address",
          "name": "from",
          "type": "address"
        },
        {
          "indexed": true,
          "internalType": "address",
          "name": "to",
          "type": "address"
        },
        {
          "indexed": true,
          "internalType": "uint256",
          "name": "tokenId",
          "type": "uint256"
        }
      ],
      "name": "Transfer",
      "type": "event"
    },
    {
      "anonymous": false,
      "inputs": [
        {
          "indexed": false,
          "internalType": "address",
          "name": "account",
          "type": "address"
        }
      ],
      "name": "Unpaused",
      "type": "event"
    },
    {
      "inputs": [],
      "name": "DEFAULT_ADMIN_ROLE",
      "outputs": [
        {
          "internalType": "bytes32",
          "name": "",
          "type": "bytes32"
        }
      ],
      "stateMutability": "view",
      "type": "function"
    },
    {
      "inputs": [],
      "name": "GAME_MASTER",
      "outputs": [
        {
          "internalType": "bytes32",
          "name": "",
          "type": "bytes32"
        }
      ],
      "stateMutability": "view",
      "type": "function"
    },
    {
      "inputs": [],
      "name": "MINTER_ROLE",
      "outputs": [
        {
          "internalType": "bytes32",
          "name": "",
          "type": "bytes32"
        }
      ],
      "stateMutability": "view",
      "type": "function"
    },
    {
      "inputs": [],
      "name": "PAUSER_ROLE",
      "outputs": [
        {
          "internalType": "bytes32",
          "name": "",
          "type": "bytes32"
        }
      ],
      "stateMutability": "view",
      "type": "function"
    },
    {
      "inputs": [
        {
          "internalType": "address",
          "name": "to",
          "type": "address"
        },
        {
          "internalType": "uint256",
          "name": "tokenId",
          "type": "uint256"
        }
      ],
      "name": "approve",
      "outputs": [],
      "stateMutability": "nonpayable",
      "type": "function"
    },
    {
      "inputs": [
        {
          "internalType": "address",
          "name": "owner",
          "type": "address"
        }
      ],
      "name": "balanceOf",
      "outputs": [
        {
          "internalType": "uint256",
          "name": "",
          "type": "uint256"
        }
      ],
      "stateMutability": "view",
      "type": "function"
    },
    {
      "inputs": [
        {
          "internalType": "uint256",
          "name": "tokenId",
          "type": "uint256"
        }
      ],
      "name": "baseTokenId",
      "outputs": [
        {
          "internalType": "uint256",
          "name": "",
          "type": "uint256"
        }
      ],
      "stateMutability": "view",
      "type": "function"
    },
    {
      "inputs": [
        {
          "internalType": "uint256",
          "name": "tokenId",
          "type": "uint256"
        }
      ],
      "name": "beastBrawn",
      "outputs": [
        {
          "internalType": "uint256",
          "name": "",
          "type": "uint256"
        }
      ],
      "stateMutability": "view",
      "type": "function"
    },
    {
      "inputs": [
        {
          "internalType": "uint256",
          "name": "tokenId",
          "type": "uint256"
        }
      ],
      "name": "beastDefeated",
      "outputs": [],
      "stateMutability": "nonpayable",
      "type": "function"
    },
    {
      "inputs": [
        {
          "internalType": "uint256",
          "name": "tokenId",
          "type": "uint256"
        }
      ],
      "name": "beastGrace",
      "outputs": [
        {
          "internalType": "uint256",
          "name": "",
          "type": "uint256"
        }
      ],
      "stateMutability": "view",
      "type": "function"
    },
    {
      "inputs": [
        {
          "internalType": "uint256",
          "name": "tokenId",
          "type": "uint256"
        }
      ],
      "name": "beastMight",
      "outputs": [
        {
          "internalType": "uint256",
          "name": "",
          "type": "uint256"
        }
      ],
      "stateMutability": "view",
      "type": "function"
    },
    {
      "inputs": [
        {
          "internalType": "uint256",
          "name": "tokenId",
          "type": "uint256"
        }
      ],
      "name": "beastWill",
      "outputs": [
        {
          "internalType": "uint256",
          "name": "",
          "type": "uint256"
        }
      ],
      "stateMutability": "view",
      "type": "function"
    },
    {
      "inputs": [
        {
          "internalType": "uint256",
          "name": "tokenId",
          "type": "uint256"
        }
      ],
      "name": "beastWit",
      "outputs": [
        {
          "internalType": "uint256",
          "name": "",
          "type": "uint256"
        }
      ],
      "stateMutability": "view",
      "type": "function"
    },
    {
      "inputs": [
        {
          "internalType": "uint256",
          "name": "tokenId",
          "type": "uint256"
        }
      ],
      "name": "burn",
      "outputs": [],
      "stateMutability": "nonpayable",
      "type": "function"
    },
    {
      "inputs": [
        {
          "internalType": "uint256",
          "name": "tokenId",
          "type": "uint256"
        }
      ],
      "name": "getApproved",
      "outputs": [
        {
          "internalType": "address",
          "name": "",
          "type": "address"
        }
      ],
      "stateMutability": "view",
      "type": "function"
    },
    {
      "inputs": [
        {
          "internalType": "bytes32",
          "name": "role",
          "type": "bytes32"
        }
      ],
      "name": "getRoleAdmin",
      "outputs": [
        {
          "internalType": "bytes32",
          "name": "",
          "type": "bytes32"
        }
      ],
      "stateMutability": "view",
      "type": "function"
    },
    {
      "inputs": [
        {
          "internalType": "bytes32",
          "name": "role",
          "type": "bytes32"
        },
        {
          "internalType": "address",
          "name": "account",
          "type": "address"
        }
      ],
      "name": "grantRole",
      "outputs": [],
      "stateMutability": "nonpayable",
      "type": "function"
    },
    {
      "inputs": [
        {
          "internalType": "bytes32",
          "name": "role",
          "type": "bytes32"
        },
        {
          "internalType": "address",
          "name": "account",
          "type": "address"
        }
      ],
      "name": "hasRole",
      "outputs": [
        {
          "internalType": "bool",
          "name": "",
          "type": "bool"
        }
      ],
      "stateMutability": "view",
      "type": "function"
    },
    {
      "inputs": [
        {
          "internalType": "address",
          "name": "owner",
          "type": "address"
        },
        {
          "internalType": "address",
          "name": "operator",
          "type": "address"
        }
      ],
      "name": "isApprovedForAll",
      "outputs": [
        {
          "internalType": "bool",
          "name": "",
          "type": "bool"
        }
      ],
      "stateMutability": "view",
      "type": "function"
    },
    {
      "inputs": [
        {
          "internalType": "uint256",
          "name": "tokenId",
          "type": "uint256"
        }
      ],
      "name": "lives",
      "outputs": [
        {
          "internalType": "uint256",
          "name": "",
          "type": "uint256"
        }
      ],
      "stateMutability": "view",
      "type": "function"
    },
    {
      "inputs": [],
      "name": "name",
      "outputs": [
        {
          "internalType": "string",
          "name": "",
          "type": "string"
        }
      ],
      "stateMutability": "view",
      "type": "function"
    },
    {
      "inputs": [
        {
          "internalType": "uint256",
          "name": "tokenId",
          "type": "uint256"
        }
      ],
      "name": "ownerOf",
      "outputs": [
        {
          "internalType": "address",
          "name": "",
          "type": "address"
        }
      ],
      "stateMutability": "view",
      "type": "function"
    },
    {
      "inputs": [],
      "name": "pause",
      "outputs": [],
      "stateMutability": "nonpayable",
      "type": "function"
    },
    {
      "inputs": [],
      "name": "paused",
      "outputs": [
        {
          "internalType": "bool",
          "name": "",
          "type": "bool"
        }
      ],
      "stateMutability": "view",
      "type": "function"
    },
    {
      "inputs": [
        {
          "internalType": "address",
          "name": "to",
          "type": "address"
        },
        {
          "internalType": "string",
          "name": "uri",
          "type": "string"
        },
        {
          "components": [
            {
              "internalType": "uint256",
              "name": "might",
              "type": "uint256"
            },
            {
              "internalType": "uint256",
              "name": "brawn",
              "type": "uint256"
            },
            {
              "internalType": "uint256",
              "name": "grace",
              "type": "uint256"
            },
            {
              "internalType": "uint256",
              "name": "wit",
              "type": "uint256"
            },
            {
              "internalType": "uint256",
              "name": "will",
              "type": "uint256"
            }
          ],
          "internalType": "struct Beasts.BeastAttributes",
          "name": "stats",
          "type": "tuple"
        },
        {
          "internalType": "uint256",
          "name": "baseToken",
          "type": "uint256"
        }
      ],
      "name": "recruitBeast",
      "outputs": [],
      "stateMutability": "nonpayable",
      "type": "function"
    },
    {
      "inputs": [
        {
          "internalType": "bytes32",
          "name": "role",
          "type": "bytes32"
        },
        {
          "internalType": "address",
          "name": "account",
          "type": "address"
        }
      ],
      "name": "renounceRole",
      "outputs": [],
      "stateMutability": "nonpayable",
      "type": "function"
    },
    {
      "inputs": [
        {
          "internalType": "bytes32",
          "name": "role",
          "type": "bytes32"
        },
        {
          "internalType": "address",
          "name": "account",
          "type": "address"
        }
      ],
      "name": "revokeRole",
      "outputs": [],
      "stateMutability": "nonpayable",
      "type": "function"
    },
    {
      "inputs": [
        {
          "internalType": "address",
          "name": "from",
          "type": "address"
        },
        {
          "internalType": "address",
          "name": "to",
          "type": "address"
        },
        {
          "internalType": "uint256",
          "name": "tokenId",
          "type": "uint256"
        }
      ],
      "name": "safeTransferFrom",
      "outputs": [],
      "stateMutability": "nonpayable",
      "type": "function"
    },
    {
      "inputs": [
        {
          "internalType": "address",
          "name": "from",
          "type": "address"
        },
        {
          "internalType": "address",
          "name": "to",
          "type": "address"
        },
        {
          "internalType": "uint256",
          "name": "tokenId",
          "type": "uint256"
        },
        {
          "internalType": "bytes",
          "name": "_data",
          "type": "bytes"
        }
      ],
      "name": "safeTransferFrom",
      "outputs": [],
      "stateMutability": "nonpayable",
      "type": "function"
    },
    {
      "inputs": [
        {
          "internalType": "address",
          "name": "operator",
          "type": "address"
        },
        {
          "internalType": "bool",
          "name": "approved",
          "type": "bool"
        }
      ],
      "name": "setApprovalForAll",
      "outputs": [],
      "stateMutability": "nonpayable",
      "type": "function"
    },
    {
      "inputs": [
        {
          "internalType": "bytes4",
          "name": "interfaceId",
          "type": "bytes4"
        }
      ],
      "name": "supportsInterface",
      "outputs": [
        {
          "internalType": "bool",
          "name": "",
          "type": "bool"
        }
      ],
      "stateMutability": "view",
      "type": "function"
    },
    {
      "inputs": [],
      "name": "symbol",
      "outputs": [
        {
          "internalType": "string",
          "name": "",
          "type": "string"
        }
      ],
      "stateMutability": "view",
      "type": "function"
    },
    {
      "inputs": [
        {
          "internalType": "uint256",
          "name": "tokenId",
          "type": "uint256"
        }
      ],
      "name": "tokenURI",
      "outputs": [
        {
          "internalType": "string",
          "name": "",
          "type": "string"
        }
      ],
      "stateMutability": "view",
      "type": "function"
    },
    {
      "inputs": [
        {
          "internalType": "address",
          "name": "from",
          "type": "address"
        },
        {
          "internalType": "address",
          "name": "to",
          "type": "address"
        },
        {
          "internalType": "uint256",
          "name": "tokenId",
          "type": "uint256"
        }
      ],
      "name": "transferFrom",
      "outputs": [],
      "stateMutability": "nonpayable",
      "type": "function"
    },
    {
      "inputs": [],
      "name": "unpause",
      "outputs": [],
      "stateMutability": "nonpayable",
      "type": "function"
    }
  ],
  "bytecode": "0x60806040523480156200001157600080fd5b506040518060400160405280600681526020017f42656173747300000000000000000000000000000000000000000000000000008152506040518060400160405280600381526020017f424242000000000000000000000000000000000000000000000000000000000081525081600090805190602001906200009692919062000310565b508060019080519060200190620000af92919062000310565b5050506000600760006101000a81548160ff021916908315150217905550620000e26000801b336200019560201b60201c565b620001147f3c13b5abbc85050d426f9500a16cfd9f7d94261c880b9a4e03d584d28c06059c336200019560201b60201c565b620001467f65d7a28e3265b37a6474929f336521b332c1681b933f6cb9f3376673440d862a336200019560201b60201c565b620001787f9f2df0fed2c77648de5860a4cc508cd0818c85b8b8a1ab4ceeef8d981c8956a6336200019560201b60201c565b6200018f60096200028760201b620012491760201c565b62000425565b620001a782826200029d60201b60201c565b620002835760016008600084815260200190815260200160002060000160008373ffffffffffffffffffffffffffffffffffffffff1673ffffffffffffffffffffffffffffffffffffffff16815260200190815260200160002060006101000a81548160ff021916908315150217905550620002286200030860201b60201c565b73ffffffffffffffffffffffffffffffffffffffff168173ffffffffffffffffffffffffffffffffffffffff16837f2f8788117e7eff1d82e926ec794901d17c78024a50270940304540a733656f0d60405160405180910390a45b5050565b6001816000016000828254019250508190555050565b60006008600084815260200190815260200160002060000160008373ffffffffffffffffffffffffffffffffffffffff1673ffffffffffffffffffffffffffffffffffffffff16815260200190815260200160002060009054906101000a900460ff16905092915050565b600033905090565b8280546200031e90620003c0565b90600052602060002090601f0160209004810192826200034257600085556200038e565b82601f106200035d57805160ff19168380011785556200038e565b828001600101855582156200038e579182015b828111156200038d57825182559160200191906001019062000370565b5b5090506200039d9190620003a1565b5090565b5b80821115620003bc576000816000905550600101620003a2565b5090565b60006002820490506001821680620003d957607f821691505b60208210811415620003f057620003ef620003f6565b5b50919050565b7f4e487b7100000000000000000000000000000000000000000000000000000000600052602260045260246000fd5b61447f80620004356000396000f3fe608060405234801561001057600080fd5b50600436106102115760003560e01c806391d1485411610125578063b88d4fde116100ad578063d547741f1161007c578063d547741f1461064a578063e63ab1e914610666578063e985e9c514610684578063ee68580e146106b4578063f5f58deb146106d057610211565b8063b88d4fde146105c4578063bfae3d0e146105e0578063c87b56dd146105fc578063d53913931461062c57610211565b80639e0e6f8c116100f45780639e0e6f8c146104fa578063a217fddf1461052a578063a22cb46514610548578063a82cd06814610564578063abb7e1971461059457610211565b806391d148541461045e57806395d89b411461048e57806399597b70146104ac5780639cae4416146104ca57610211565b806336568abe116101a857806342966c681161017757806342966c68146103ba5780635c975abb146103d65780636352211e146103f457806370a08231146104245780638456cb591461045457610211565b806336568abe146103485780633ebf9aaa146103645780633f4ba83a1461039457806342842e0e1461039e57610211565b8063160c1261116101e4578063160c1261146102b057806323b872dd146102e0578063248a9ca3146102fc5780632f2ff15d1461032c57610211565b806301ffc9a71461021657806306fdde0314610246578063081812fc14610264578063095ea7b314610294575b600080fd5b610230600480360381019061022b919061308e565b610700565b60405161023d91906135f5565b60405180910390f35b61024e610712565b60405161025b919061362b565b60405180910390f35b61027e600480360381019061027991906130e0565b6107a4565b60405161028b919061358e565b60405180910390f35b6102ae60048036038101906102a99190612fed565b610829565b005b6102ca60048036038101906102c591906130e0565b610941565b6040516102d7919061390d565b60405180910390f35b6102fa60048036038101906102f59190612e6b565b610964565b005b61031660048036038101906103119190613029565b6109c4565b6040516103239190613610565b60405180910390f35b61034660048036038101906103419190613052565b6109e4565b005b610362600480360381019061035d9190613052565b610a0d565b005b61037e600480360381019061037991906130e0565b610a90565b60405161038b919061390d565b60405180910390f35b61039c610ab7565b005b6103b860048036038101906103b39190612e6b565b610af4565b005b6103d460048036038101906103cf91906130e0565b610b14565b005b6103de610b70565b6040516103eb91906135f5565b60405180910390f35b61040e600480360381019061040991906130e0565b610b87565b60405161041b919061358e565b60405180910390f35b61043e60048036038101906104399190612e06565b610c39565b60405161044b919061390d565b60405180910390f35b61045c610cf1565b005b61047860048036038101906104739190613052565b610d2e565b60405161048591906135f5565b60405180910390f35b610496610d99565b6040516104a3919061362b565b60405180910390f35b6104b4610e2b565b6040516104c19190613610565b60405180910390f35b6104e460048036038101906104df91906130e0565b610e4f565b6040516104f1919061390d565b60405180910390f35b610514600480360381019061050f91906130e0565b610e72565b604051610521919061390d565b60405180910390f35b610532610e95565b60405161053f9190613610565b60405180910390f35b610562600480360381019061055d9190612f35565b610e9c565b005b61057e600480360381019061057991906130e0565b610eb2565b60405161058b919061390d565b60405180910390f35b6105ae60048036038101906105a991906130e0565b610ed5565b6040516105bb919061390d565b60405180910390f35b6105de60048036038101906105d99190612eba565b610ef8565b005b6105fa60048036038101906105f59190612f71565b610f5a565b005b610616600480360381019061061191906130e0565b6110be565b604051610623919061362b565b60405180910390f35b6106346110d0565b6040516106419190613610565b60405180910390f35b610664600480360381019061065f9190613052565b6110f4565b005b61066e61111d565b60405161067b9190613610565b60405180910390f35b61069e60048036038101906106999190612e2f565b611141565b6040516106ab91906135f5565b60405180910390f35b6106ce60048036038101906106c991906130e0565b6111d5565b005b6106ea60048036038101906106e591906130e0565b611229565b6040516106f7919061390d565b60405180910390f35b600061070b8261125f565b9050919050565b60606000805461072190613c1a565b80601f016020809104026020016040519081016040528092919081815260200182805461074d90613c1a565b801561079a5780601f1061076f5761010080835404028352916020019161079a565b820191906000526020600020905b81548152906001019060200180831161077d57829003601f168201915b5050505050905090565b60006107af826112d9565b6107ee576040517f08c379a00000000000000000000000000000000000000000000000000000000081526004016107e59061382d565b60405180910390fd5b6004600083815260200190815260200160002060009054906101000a900473ffffffffffffffffffffffffffffffffffffffff169050919050565b600061083482610b87565b90508073ffffffffffffffffffffffffffffffffffffffff168373ffffffffffffffffffffffffffffffffffffffff1614156108a5576040517f08c379a000000000000000000000000000000000000000000000000000000000815260040161089c9061388d565b60405180910390fd5b8073ffffffffffffffffffffffffffffffffffffffff166108c4611345565b73ffffffffffffffffffffffffffffffffffffffff1614806108f357506108f2816108ed611345565b611141565b5b610932576040517f08c379a00000000000000000000000000000000000000000000000000000000081526004016109299061376d565b60405180910390fd5b61093c838361134d565b505050565b6000600a6000838152602001908152602001600020600101600201549050919050565b61097561096f611345565b82611406565b6109b4576040517f08c379a00000000000000000000000000000000000000000000000000000000081526004016109ab906138ad565b60405180910390fd5b6109bf8383836114e4565b505050565b600060086000838152602001908152602001600020600101549050919050565b6109ed826109c4565b6109fe816109f9611345565b611740565b610a0883836117dd565b505050565b610a15611345565b73ffffffffffffffffffffffffffffffffffffffff168173ffffffffffffffffffffffffffffffffffffffff1614610a82576040517f08c379a0000000000000000000000000000000000000000000000000000000008152600401610a79906138ed565b60405180910390fd5b610a8c82826118be565b5050565b6000610ab0600a60008481526020019081526020016000206000016119a0565b9050919050565b7f65d7a28e3265b37a6474929f336521b332c1681b933f6cb9f3376673440d862a610ae981610ae4611345565b611740565b610af16119ae565b50565b610b0f83838360405180602001604052806000815250610ef8565b505050565b610b25610b1f611345565b82611406565b610b64576040517f08c379a0000000000000000000000000000000000000000000000000000000008152600401610b5b906138cd565b60405180910390fd5b610b6d81611a50565b50565b6000600760009054906101000a900460ff16905090565b6000806002600084815260200190815260200160002060009054906101000a900473ffffffffffffffffffffffffffffffffffffffff169050600073ffffffffffffffffffffffffffffffffffffffff168173ffffffffffffffffffffffffffffffffffffffff161415610c30576040517f08c379a0000000000000000000000000000000000000000000000000000000008152600401610c27906137ad565b60405180910390fd5b80915050919050565b60008073ffffffffffffffffffffffffffffffffffffffff168273ffffffffffffffffffffffffffffffffffffffff161415610caa576040517f08c379a0000000000000000000000000000000000000000000000000000000008152600401610ca19061378d565b60405180910390fd5b600360008373ffffffffffffffffffffffffffffffffffffffff1673ffffffffffffffffffffffffffffffffffffffff168152602001908152602001600020549050919050565b7f65d7a28e3265b37a6474929f336521b332c1681b933f6cb9f3376673440d862a610d2381610d1e611345565b611740565b610d2b611a5c565b50565b60006008600084815260200190815260200160002060000160008373ffffffffffffffffffffffffffffffffffffffff1673ffffffffffffffffffffffffffffffffffffffff16815260200190815260200160002060009054906101000a900460ff16905092915050565b606060018054610da890613c1a565b80601f0160208091040260200160405190810160405280929190818152602001828054610dd490613c1a565b8015610e215780601f10610df657610100808354040283529160200191610e21565b820191906000526020600020905b815481529060010190602001808311610e0457829003601f168201915b5050505050905090565b7f3c13b5abbc85050d426f9500a16cfd9f7d94261c880b9a4e03d584d28c06059c81565b6000600a6000838152602001908152602001600020600101600101549050919050565b6000600a6000838152602001908152602001600020600101600001549050919050565b6000801b81565b610eae610ea7611345565b8383611aff565b5050565b6000600a6000838152602001908152602001600020600101600401549050919050565b6000600a6000838152602001908152602001600020600101600301549050919050565b610f09610f03611345565b83611406565b610f48576040517f08c379a0000000000000000000000000000000000000000000000000000000008152600401610f3f906138ad565b60405180910390fd5b610f5484848484611c6c565b50505050565b7f9f2df0fed2c77648de5860a4cc508cd0818c85b8b8a1ab4ceeef8d981c8956a6610f8c81610f87611345565b611740565b6000610f9860096119a0565b9050610fa46009611249565b610fae8682611cc8565b610fb88186611ce6565b82600a6000838152602001908152602001600020600601819055508360000151600a6000838152602001908152602001600020600101600001819055508360200151600a6000838152602001908152602001600020600101600101819055508360400151600a6000838152602001908152602001600020600101600201819055508360600151600a6000838152602001908152602001600020600101600301819055508360800151600a6000838152602001908152602001600020600101600401819055507f3faf42dacc89a01b766a6d17677d502e83ae6c4e3b577674c8e96729249fe7f581876040516110ae929190613928565b60405180910390a1505050505050565b60606110c982611d5a565b9050919050565b7f9f2df0fed2c77648de5860a4cc508cd0818c85b8b8a1ab4ceeef8d981c8956a681565b6110fd826109c4565b61110e81611109611345565b611740565b61111883836118be565b505050565b7f65d7a28e3265b37a6474929f336521b332c1681b933f6cb9f3376673440d862a81565b6000600560008473ffffffffffffffffffffffffffffffffffffffff1673ffffffffffffffffffffffffffffffffffffffff16815260200190815260200160002060008373ffffffffffffffffffffffffffffffffffffffff1673ffffffffffffffffffffffffffffffffffffffff16815260200190815260200160002060009054906101000a900460ff16905092915050565b7f3c13b5abbc85050d426f9500a16cfd9f7d94261c880b9a4e03d584d28c06059c61120781611202611345565b611740565b611225600a6000848152602001908152602001600020600001611eac565b5050565b6000600a6000838152602001908152602001600020600601549050919050565b6001816000016000828254019250508190555050565b60007f7965db0b000000000000000000000000000000000000000000000000000000007bffffffffffffffffffffffffffffffffffffffffffffffffffffffff1916827bffffffffffffffffffffffffffffffffffffffffffffffffffffffff191614806112d257506112d182611f08565b5b9050919050565b60008073ffffffffffffffffffffffffffffffffffffffff166002600084815260200190815260200160002060009054906101000a900473ffffffffffffffffffffffffffffffffffffffff1673ffffffffffffffffffffffffffffffffffffffff1614159050919050565b600033905090565b816004600083815260200190815260200160002060006101000a81548173ffffffffffffffffffffffffffffffffffffffff021916908373ffffffffffffffffffffffffffffffffffffffff160217905550808273ffffffffffffffffffffffffffffffffffffffff166113c083610b87565b73ffffffffffffffffffffffffffffffffffffffff167f8c5be1e5ebec7d5bd14f71427d1e84f3dd0314c0f7b2291e5b200ac8c7c3b92560405160405180910390a45050565b6000611411826112d9565b611450576040517f08c379a00000000000000000000000000000000000000000000000000000000081526004016114479061372d565b60405180910390fd5b600061145b83610b87565b90508073ffffffffffffffffffffffffffffffffffffffff168473ffffffffffffffffffffffffffffffffffffffff1614806114ca57508373ffffffffffffffffffffffffffffffffffffffff166114b2846107a4565b73ffffffffffffffffffffffffffffffffffffffff16145b806114db57506114da8185611141565b5b91505092915050565b8273ffffffffffffffffffffffffffffffffffffffff1661150482610b87565b73ffffffffffffffffffffffffffffffffffffffff161461155a576040517f08c379a00000000000000000000000000000000000000000000000000000000081526004016115519061384d565b60405180910390fd5b600073ffffffffffffffffffffffffffffffffffffffff168273ffffffffffffffffffffffffffffffffffffffff1614156115ca576040517f08c379a00000000000000000000000000000000000000000000000000000000081526004016115c1906136ed565b60405180910390fd5b6115d5838383611fea565b6115e060008261134d565b6001600360008573ffffffffffffffffffffffffffffffffffffffff1673ffffffffffffffffffffffffffffffffffffffff16815260200190815260200160002060008282546116309190613afc565b925050819055506001600360008473ffffffffffffffffffffffffffffffffffffffff1673ffffffffffffffffffffffffffffffffffffffff16815260200190815260200160002060008282546116879190613a1b565b92505081905550816002600083815260200190815260200160002060006101000a81548173ffffffffffffffffffffffffffffffffffffffff021916908373ffffffffffffffffffffffffffffffffffffffff160217905550808273ffffffffffffffffffffffffffffffffffffffff168473ffffffffffffffffffffffffffffffffffffffff167fddf252ad1be2c89b69c2b068fc378daa952ba7f163c4a11628f55a4df523b3ef60405160405180910390a4505050565b61174a8282610d2e565b6117d95761176f8173ffffffffffffffffffffffffffffffffffffffff166014612042565b61177d8360001c6020612042565b60405160200161178e929190613554565b6040516020818303038152906040526040517f08c379a00000000000000000000000000000000000000000000000000000000081526004016117d0919061362b565b60405180910390fd5b5050565b6117e78282610d2e565b6118ba5760016008600084815260200190815260200160002060000160008373ffffffffffffffffffffffffffffffffffffffff1673ffffffffffffffffffffffffffffffffffffffff16815260200190815260200160002060006101000a81548160ff02191690831515021790555061185f611345565b73ffffffffffffffffffffffffffffffffffffffff168173ffffffffffffffffffffffffffffffffffffffff16837f2f8788117e7eff1d82e926ec794901d17c78024a50270940304540a733656f0d60405160405180910390a45b5050565b6118c88282610d2e565b1561199c5760006008600084815260200190815260200160002060000160008373ffffffffffffffffffffffffffffffffffffffff1673ffffffffffffffffffffffffffffffffffffffff16815260200190815260200160002060006101000a81548160ff021916908315150217905550611941611345565b73ffffffffffffffffffffffffffffffffffffffff168173ffffffffffffffffffffffffffffffffffffffff16837ff6391f5c32d9c69d2a47ea670b442974b53935d1edc7fd64eb21e047a839171b60405160405180910390a45b5050565b600081600001549050919050565b6119b6610b70565b6119f5576040517f08c379a00000000000000000000000000000000000000000000000000000000081526004016119ec9061366d565b60405180910390fd5b6000600760006101000a81548160ff0219169083151502179055507f5db9ee0a495bf2e6ff9c91a7834c1ba4fdd244a5e8aa4e537bd38aeae4b073aa611a39611345565b604051611a46919061358e565b60405180910390a1565b611a598161233c565b50565b611a64610b70565b15611aa4576040517f08c379a0000000000000000000000000000000000000000000000000000000008152600401611a9b9061374d565b60405180910390fd5b6001600760006101000a81548160ff0219169083151502179055507f62e78cea01bee320cd4e420270b5ea74000d11b0c9f74754ebdbfc544b05a258611ae8611345565b604051611af5919061358e565b60405180910390a1565b8173ffffffffffffffffffffffffffffffffffffffff168373ffffffffffffffffffffffffffffffffffffffff161415611b6e576040517f08c379a0000000000000000000000000000000000000000000000000000000008152600401611b659061370d565b60405180910390fd5b80600560008573ffffffffffffffffffffffffffffffffffffffff1673ffffffffffffffffffffffffffffffffffffffff16815260200190815260200160002060008473ffffffffffffffffffffffffffffffffffffffff1673ffffffffffffffffffffffffffffffffffffffff16815260200190815260200160002060006101000a81548160ff0219169083151502179055508173ffffffffffffffffffffffffffffffffffffffff168373ffffffffffffffffffffffffffffffffffffffff167f17307eab39ab6107e8899845ad3d59bd9653f200f220920489ca2b5937696c3183604051611c5f91906135f5565b60405180910390a3505050565b611c778484846114e4565b611c838484848461238f565b611cc2576040517f08c379a0000000000000000000000000000000000000000000000000000000008152600401611cb9906136ad565b60405180910390fd5b50505050565b611ce2828260405180602001604052806000815250612526565b5050565b611cef826112d9565b611d2e576040517f08c379a0000000000000000000000000000000000000000000000000000000008152600401611d25906137cd565b60405180910390fd5b80600660008481526020019081526020016000209080519060200190611d55929190612b4d565b505050565b6060611d65826112d9565b611da4576040517f08c379a0000000000000000000000000000000000000000000000000000000008152600401611d9b9061380d565b60405180910390fd5b6000600660008481526020019081526020016000208054611dc490613c1a565b80601f0160208091040260200160405190810160405280929190818152602001828054611df090613c1a565b8015611e3d5780601f10611e1257610100808354040283529160200191611e3d565b820191906000526020600020905b815481529060010190602001808311611e2057829003601f168201915b505050505090506000611e4e612581565b9050600081511415611e64578192505050611ea7565b600082511115611e99578082604051602001611e81929190613530565b60405160208183030381529060405292505050611ea7565b611ea284612598565b925050505b919050565b60008160000154905060008111611ef8576040517f08c379a0000000000000000000000000000000000000000000000000000000008152600401611eef9061368d565b60405180910390fd5b6001810382600001819055505050565b60007f80ac58cd000000000000000000000000000000000000000000000000000000007bffffffffffffffffffffffffffffffffffffffffffffffffffffffff1916827bffffffffffffffffffffffffffffffffffffffffffffffffffffffff19161480611fd357507f5b5e139f000000000000000000000000000000000000000000000000000000007bffffffffffffffffffffffffffffffffffffffffffffffffffffffff1916827bffffffffffffffffffffffffffffffffffffffffffffffffffffffff1916145b80611fe35750611fe28261263f565b5b9050919050565b611ff2610b70565b15612032576040517f08c379a00000000000000000000000000000000000000000000000000000000081526004016120299061374d565b60405180910390fd5b61203d8383836126a9565b505050565b6060600060028360026120559190613aa2565b61205f9190613a1b565b67ffffffffffffffff81111561209e577f4e487b7100000000000000000000000000000000000000000000000000000000600052604160045260246000fd5b6040519080825280601f01601f1916602001820160405280156120d05781602001600182028036833780820191505090505b5090507f30000000000000000000000000000000000000000000000000000000000000008160008151811061212e577f4e487b7100000000000000000000000000000000000000000000000000000000600052603260045260246000fd5b60200101907effffffffffffffffffffffffffffffffffffffffffffffffffffffffffffff1916908160001a9053507f7800000000000000000000000000000000000000000000000000000000000000816001815181106121b8577f4e487b7100000000000000000000000000000000000000000000000000000000600052603260045260246000fd5b60200101907effffffffffffffffffffffffffffffffffffffffffffffffffffffffffffff1916908160001a905350600060018460026121f89190613aa2565b6122029190613a1b565b90505b60018111156122ee577f3031323334353637383961626364656600000000000000000000000000000000600f86166010811061226a577f4e487b7100000000000000000000000000000000000000000000000000000000600052603260045260246000fd5b1a60f81b8282815181106122a7577f4e487b7100000000000000000000000000000000000000000000000000000000600052603260045260246000fd5b60200101907effffffffffffffffffffffffffffffffffffffffffffffffffffffffffffff1916908160001a905350600485901c9450806122e790613bf0565b9050612205565b5060008414612332576040517f08c379a00000000000000000000000000000000000000000000000000000000081526004016123299061364d565b60405180910390fd5b8091505092915050565b612345816126ae565b600060066000838152602001908152602001600020805461236590613c1a565b90501461238c5760066000828152602001908152602001600020600061238b9190612bd3565b5b50565b60006123b08473ffffffffffffffffffffffffffffffffffffffff166127bf565b15612519578373ffffffffffffffffffffffffffffffffffffffff1663150b7a026123d9611345565b8786866040518563ffffffff1660e01b81526004016123fb94939291906135a9565b602060405180830381600087803b15801561241557600080fd5b505af192505050801561244657506040513d601f19601f8201168201806040525081019061244391906130b7565b60015b6124c9573d8060008114612476576040519150601f19603f3d011682016040523d82523d6000602084013e61247b565b606091505b506000815114156124c1576040517f08c379a00000000000000000000000000000000000000000000000000000000081526004016124b8906136ad565b60405180910390fd5b805181602001fd5b63150b7a0260e01b7bffffffffffffffffffffffffffffffffffffffffffffffffffffffff1916817bffffffffffffffffffffffffffffffffffffffffffffffffffffffff19161491505061251e565b600190505b949350505050565b61253083836127d2565b61253d600084848461238f565b61257c576040517f08c379a0000000000000000000000000000000000000000000000000000000008152600401612573906136ad565b60405180910390fd5b505050565b606060405180602001604052806000815250905090565b60606125a3826112d9565b6125e2576040517f08c379a00000000000000000000000000000000000000000000000000000000081526004016125d99061386d565b60405180910390fd5b60006125ec612581565b9050600081511161260c5760405180602001604052806000815250612637565b80612616846129a0565b604051602001612627929190613530565b6040516020818303038152906040525b915050919050565b60007f01ffc9a7000000000000000000000000000000000000000000000000000000007bffffffffffffffffffffffffffffffffffffffffffffffffffffffff1916827bffffffffffffffffffffffffffffffffffffffffffffffffffffffff1916149050919050565b505050565b60006126b982610b87565b90506126c781600084611fea565b6126d260008361134d565b6001600360008373ffffffffffffffffffffffffffffffffffffffff1673ffffffffffffffffffffffffffffffffffffffff16815260200190815260200160002060008282546127229190613afc565b925050819055506002600083815260200190815260200160002060006101000a81549073ffffffffffffffffffffffffffffffffffffffff021916905581600073ffffffffffffffffffffffffffffffffffffffff168273ffffffffffffffffffffffffffffffffffffffff167fddf252ad1be2c89b69c2b068fc378daa952ba7f163c4a11628f55a4df523b3ef60405160405180910390a45050565b600080823b905060008111915050919050565b600073ffffffffffffffffffffffffffffffffffffffff168273ffffffffffffffffffffffffffffffffffffffff161415612842576040517f08c379a0000000000000000000000000000000000000000000000000000000008152600401612839906137ed565b60405180910390fd5b61284b816112d9565b1561288b576040517f08c379a0000000000000000000000000000000000000000000000000000000008152600401612882906136cd565b60405180910390fd5b61289760008383611fea565b6001600360008473ffffffffffffffffffffffffffffffffffffffff1673ffffffffffffffffffffffffffffffffffffffff16815260200190815260200160002060008282546128e79190613a1b565b92505081905550816002600083815260200190815260200160002060006101000a81548173ffffffffffffffffffffffffffffffffffffffff021916908373ffffffffffffffffffffffffffffffffffffffff160217905550808273ffffffffffffffffffffffffffffffffffffffff16600073ffffffffffffffffffffffffffffffffffffffff167fddf252ad1be2c89b69c2b068fc378daa952ba7f163c4a11628f55a4df523b3ef60405160405180910390a45050565b606060008214156129e8576040518060400160405280600181526020017f30000000000000000000000000000000000000000000000000000000000000008152509050612b48565b600082905060005b60008214612a1a578080612a0390613c7d565b915050600a82612a139190613a71565b91506129f0565b60008167ffffffffffffffff811115612a5c577f4e487b7100000000000000000000000000000000000000000000000000000000600052604160045260246000fd5b6040519080825280601f01601f191660200182016040528015612a8e5781602001600182028036833780820191505090505b5090505b60008514612b4157600182612aa79190613afc565b9150600a85612ab69190613cc6565b6030612ac29190613a1b565b60f81b818381518110612afe577f4e487b7100000000000000000000000000000000000000000000000000000000600052603260045260246000fd5b60200101907effffffffffffffffffffffffffffffffffffffffffffffffffffffffffffff1916908160001a905350600a85612b3a9190613a71565b9450612a92565b8093505050505b919050565b828054612b5990613c1a565b90600052602060002090601f016020900481019282612b7b5760008555612bc2565b82601f10612b9457805160ff1916838001178555612bc2565b82800160010185558215612bc2579182015b82811115612bc1578251825591602001919060010190612ba6565b5b509050612bcf9190612c13565b5090565b508054612bdf90613c1a565b6000825580601f10612bf15750612c10565b601f016020900490600052602060002090810190612c0f9190612c13565b5b50565b5b80821115612c2c576000816000905550600101612c14565b5090565b6000612c43612c3e84613976565b613951565b905082815260208101848484011115612c5b57600080fd5b612c66848285613bae565b509392505050565b6000612c81612c7c846139a7565b613951565b905082815260208101848484011115612c9957600080fd5b612ca4848285613bae565b509392505050565b600081359050612cbb816143d6565b92915050565b600081359050612cd0816143ed565b92915050565b600081359050612ce581614404565b92915050565b600081359050612cfa8161441b565b92915050565b600081519050612d0f8161441b565b92915050565b600082601f830112612d2657600080fd5b8135612d36848260208601612c30565b91505092915050565b600082601f830112612d5057600080fd5b8135612d60848260208601612c6e565b91505092915050565b600060a08284031215612d7b57600080fd5b612d8560a0613951565b90506000612d9584828501612df1565b6000830152506020612da984828501612df1565b6020830152506040612dbd84828501612df1565b6040830152506060612dd184828501612df1565b6060830152506080612de584828501612df1565b60808301525092915050565b600081359050612e0081614432565b92915050565b600060208284031215612e1857600080fd5b6000612e2684828501612cac565b91505092915050565b60008060408385031215612e4257600080fd5b6000612e5085828601612cac565b9250506020612e6185828601612cac565b9150509250929050565b600080600060608486031215612e8057600080fd5b6000612e8e86828701612cac565b9350506020612e9f86828701612cac565b9250506040612eb086828701612df1565b9150509250925092565b60008060008060808587031215612ed057600080fd5b6000612ede87828801612cac565b9450506020612eef87828801612cac565b9350506040612f0087828801612df1565b925050606085013567ffffffffffffffff811115612f1d57600080fd5b612f2987828801612d15565b91505092959194509250565b60008060408385031215612f4857600080fd5b6000612f5685828601612cac565b9250506020612f6785828601612cc1565b9150509250929050565b6000806000806101008587031215612f8857600080fd5b6000612f9687828801612cac565b945050602085013567ffffffffffffffff811115612fb357600080fd5b612fbf87828801612d3f565b9350506040612fd087828801612d69565b92505060e0612fe187828801612df1565b91505092959194509250565b6000806040838503121561300057600080fd5b600061300e85828601612cac565b925050602061301f85828601612df1565b9150509250929050565b60006020828403121561303b57600080fd5b600061304984828501612cd6565b91505092915050565b6000806040838503121561306557600080fd5b600061307385828601612cd6565b925050602061308485828601612cac565b9150509250929050565b6000602082840312156130a057600080fd5b60006130ae84828501612ceb565b91505092915050565b6000602082840312156130c957600080fd5b60006130d784828501612d00565b91505092915050565b6000602082840312156130f257600080fd5b600061310084828501612df1565b91505092915050565b61311281613b30565b82525050565b61312181613b42565b82525050565b61313081613b4e565b82525050565b6000613141826139d8565b61314b81856139ee565b935061315b818560208601613bbd565b61316481613db3565b840191505092915050565b600061317a826139e3565b61318481856139ff565b9350613194818560208601613bbd565b61319d81613db3565b840191505092915050565b60006131b3826139e3565b6131bd8185613a10565b93506131cd818560208601613bbd565b80840191505092915050565b60006131e66020836139ff565b91506131f182613dc4565b602082019050919050565b60006132096014836139ff565b915061321482613ded565b602082019050919050565b600061322c601b836139ff565b915061323782613e16565b602082019050919050565b600061324f6032836139ff565b915061325a82613e3f565b604082019050919050565b6000613272601c836139ff565b915061327d82613e8e565b602082019050919050565b60006132956024836139ff565b91506132a082613eb7565b604082019050919050565b60006132b86019836139ff565b91506132c382613f06565b602082019050919050565b60006132db602c836139ff565b91506132e682613f2f565b604082019050919050565b60006132fe6010836139ff565b915061330982613f7e565b602082019050919050565b60006133216038836139ff565b915061332c82613fa7565b604082019050919050565b6000613344602a836139ff565b915061334f82613ff6565b604082019050919050565b60006133676029836139ff565b915061337282614045565b604082019050919050565b600061338a602e836139ff565b915061339582614094565b604082019050919050565b60006133ad6020836139ff565b91506133b8826140e3565b602082019050919050565b60006133d06031836139ff565b91506133db8261410c565b604082019050919050565b60006133f3602c836139ff565b91506133fe8261415b565b604082019050919050565b60006134166029836139ff565b9150613421826141aa565b604082019050919050565b6000613439602f836139ff565b9150613444826141f9565b604082019050919050565b600061345c6021836139ff565b915061346782614248565b604082019050919050565b600061347f6031836139ff565b915061348a82614297565b604082019050919050565b60006134a2601783613a10565b91506134ad826142e6565b601782019050919050565b60006134c56030836139ff565b91506134d08261430f565b604082019050919050565b60006134e8601183613a10565b91506134f38261435e565b601182019050919050565b600061350b602f836139ff565b915061351682614387565b604082019050919050565b61352a81613ba4565b82525050565b600061353c82856131a8565b915061354882846131a8565b91508190509392505050565b600061355f82613495565b915061356b82856131a8565b9150613576826134db565b915061358282846131a8565b91508190509392505050565b60006020820190506135a36000830184613109565b92915050565b60006080820190506135be6000830187613109565b6135cb6020830186613109565b6135d86040830185613521565b81810360608301526135ea8184613136565b905095945050505050565b600060208201905061360a6000830184613118565b92915050565b60006020820190506136256000830184613127565b92915050565b60006020820190508181036000830152613645818461316f565b905092915050565b60006020820190508181036000830152613666816131d9565b9050919050565b60006020820190508181036000830152613686816131fc565b9050919050565b600060208201905081810360008301526136a68161321f565b9050919050565b600060208201905081810360008301526136c681613242565b9050919050565b600060208201905081810360008301526136e681613265565b9050919050565b6000602082019050818103600083015261370681613288565b9050919050565b60006020820190508181036000830152613726816132ab565b9050919050565b60006020820190508181036000830152613746816132ce565b9050919050565b60006020820190508181036000830152613766816132f1565b9050919050565b6000602082019050818103600083015261378681613314565b9050919050565b600060208201905081810360008301526137a681613337565b9050919050565b600060208201905081810360008301526137c68161335a565b9050919050565b600060208201905081810360008301526137e68161337d565b9050919050565b60006020820190508181036000830152613806816133a0565b9050919050565b60006020820190508181036000830152613826816133c3565b9050919050565b60006020820190508181036000830152613846816133e6565b9050919050565b6000602082019050818103600083015261386681613409565b9050919050565b600060208201905081810360008301526138868161342c565b9050919050565b600060208201905081810360008301526138a68161344f565b9050919050565b600060208201905081810360008301526138c681613472565b9050919050565b600060208201905081810360008301526138e6816134b8565b9050919050565b60006020820190508181036000830152613906816134fe565b9050919050565b60006020820190506139226000830184613521565b92915050565b600060408201905061393d6000830185613521565b61394a6020830184613109565b9392505050565b600061395b61396c565b90506139678282613c4c565b919050565b6000604051905090565b600067ffffffffffffffff82111561399157613990613d84565b5b61399a82613db3565b9050602081019050919050565b600067ffffffffffffffff8211156139c2576139c1613d84565b5b6139cb82613db3565b9050602081019050919050565b600081519050919050565b600081519050919050565b600082825260208201905092915050565b600082825260208201905092915050565b600081905092915050565b6000613a2682613ba4565b9150613a3183613ba4565b9250827fffffffffffffffffffffffffffffffffffffffffffffffffffffffffffffffff03821115613a6657613a65613cf7565b5b828201905092915050565b6000613a7c82613ba4565b9150613a8783613ba4565b925082613a9757613a96613d26565b5b828204905092915050565b6000613aad82613ba4565b9150613ab883613ba4565b9250817fffffffffffffffffffffffffffffffffffffffffffffffffffffffffffffffff0483118215151615613af157613af0613cf7565b5b828202905092915050565b6000613b0782613ba4565b9150613b1283613ba4565b925082821015613b2557613b24613cf7565b5b828203905092915050565b6000613b3b82613b84565b9050919050565b60008115159050919050565b6000819050919050565b60007fffffffff0000000000000000000000000000000000000000000000000000000082169050919050565b600073ffffffffffffffffffffffffffffffffffffffff82169050919050565b6000819050919050565b82818337600083830152505050565b60005b83811015613bdb578082015181840152602081019050613bc0565b83811115613bea576000848401525b50505050565b6000613bfb82613ba4565b91506000821415613c0f57613c0e613cf7565b5b600182039050919050565b60006002820490506001821680613c3257607f821691505b60208210811415613c4657613c45613d55565b5b50919050565b613c5582613db3565b810181811067ffffffffffffffff82111715613c7457613c73613d84565b5b80604052505050565b6000613c8882613ba4565b91507fffffffffffffffffffffffffffffffffffffffffffffffffffffffffffffffff821415613cbb57613cba613cf7565b5b600182019050919050565b6000613cd182613ba4565b9150613cdc83613ba4565b925082613cec57613ceb613d26565b5b828206905092915050565b7f4e487b7100000000000000000000000000000000000000000000000000000000600052601160045260246000fd5b7f4e487b7100000000000000000000000000000000000000000000000000000000600052601260045260246000fd5b7f4e487b7100000000000000000000000000000000000000000000000000000000600052602260045260246000fd5b7f4e487b7100000000000000000000000000000000000000000000000000000000600052604160045260246000fd5b6000601f19601f8301169050919050565b7f537472696e67733a20686578206c656e67746820696e73756666696369656e74600082015250565b7f5061757361626c653a206e6f7420706175736564000000000000000000000000600082015250565b7f436f756e7465723a2064656372656d656e74206f766572666c6f770000000000600082015250565b7f4552433732313a207472616e7366657220746f206e6f6e20455243373231526560008201527f63656976657220696d706c656d656e7465720000000000000000000000000000602082015250565b7f4552433732313a20746f6b656e20616c7265616479206d696e74656400000000600082015250565b7f4552433732313a207472616e7366657220746f20746865207a65726f2061646460008201527f7265737300000000000000000000000000000000000000000000000000000000602082015250565b7f4552433732313a20617070726f766520746f2063616c6c657200000000000000600082015250565b7f4552433732313a206f70657261746f7220717565727920666f72206e6f6e657860008201527f697374656e7420746f6b656e0000000000000000000000000000000000000000602082015250565b7f5061757361626c653a2070617573656400000000000000000000000000000000600082015250565b7f4552433732313a20617070726f76652063616c6c6572206973206e6f74206f7760008201527f6e6572206e6f7220617070726f76656420666f7220616c6c0000000000000000602082015250565b7f4552433732313a2062616c616e636520717565727920666f7220746865207a6560008201527f726f206164647265737300000000000000000000000000000000000000000000602082015250565b7f4552433732313a206f776e657220717565727920666f72206e6f6e657869737460008201527f656e7420746f6b656e0000000000000000000000000000000000000000000000602082015250565b7f45524337323155524953746f726167653a2055524920736574206f66206e6f6e60008201527f6578697374656e7420746f6b656e000000000000000000000000000000000000602082015250565b7f4552433732313a206d696e7420746f20746865207a65726f2061646472657373600082015250565b7f45524337323155524953746f726167653a2055524920717565727920666f722060008201527f6e6f6e6578697374656e7420746f6b656e000000000000000000000000000000602082015250565b7f4552433732313a20617070726f76656420717565727920666f72206e6f6e657860008201527f697374656e7420746f6b656e0000000000000000000000000000000000000000602082015250565b7f4552433732313a207472616e73666572206f6620746f6b656e2074686174206960008201527f73206e6f74206f776e0000000000000000000000000000000000000000000000602082015250565b7f4552433732314d657461646174613a2055524920717565727920666f72206e6f60008201527f6e6578697374656e7420746f6b656e0000000000000000000000000000000000602082015250565b7f4552433732313a20617070726f76616c20746f2063757272656e74206f776e6560008201527f7200000000000000000000000000000000000000000000000000000000000000602082015250565b7f4552433732313a207472616e736665722063616c6c6572206973206e6f74206f60008201527f776e6572206e6f7220617070726f766564000000000000000000000000000000602082015250565b7f416363657373436f6e74726f6c3a206163636f756e7420000000000000000000600082015250565b7f4552433732314275726e61626c653a2063616c6c6572206973206e6f74206f7760008201527f6e6572206e6f7220617070726f76656400000000000000000000000000000000602082015250565b7f206973206d697373696e6720726f6c6520000000000000000000000000000000600082015250565b7f416363657373436f6e74726f6c3a2063616e206f6e6c792072656e6f756e636560008201527f20726f6c657320666f722073656c660000000000000000000000000000000000602082015250565b6143df81613b30565b81146143ea57600080fd5b50565b6143f681613b42565b811461440157600080fd5b50565b61440d81613b4e565b811461441857600080fd5b50565b61442481613b58565b811461442f57600080fd5b50565b61443b81613ba4565b811461444657600080fd5b5056fea2646970667358221220de103b8868a73a206844cd08968beeee91b1b7a40af3b266bb87b1eaf8ee9b4e64736f6c63430008040033",
  "linkReferences": {},
  "deployedLinkReferences": {}
}